{
    "contractName": "Crowdfunding",
    "abi": [
        {
            "inputs": [
                {
                    "internalType": "uint256",
                    "name": "",
                    "type": "uint256"
                }
            ],
            "name": "projects",
            "outputs": [
                {
                    "internalType": "address payable",
                    "name": "creator",
                    "type": "address"
                },
                {
                    "internalType": "uint256",
                    "name": "targetAmount",
                    "type": "uint256"
                },
                {
                    "internalType": "uint256",
                    "name": "deadline",
                    "type": "uint256"
                },
                {
                    "internalType": "uint256",
                    "name": "numFunders",
                    "type": "uint256"
                },
                {
                    "internalType": "uint256",
                    "name": "amountRaised",
                    "type": "uint256"
                }
            ],
            "stateMutability": "view",
            "type": "function",
            "constant": true
        },
        {
            "inputs": [
                {
                    "internalType": "uint256",
                    "name": "targetAmount",
                    "type": "uint256"
                },
                {
                    "internalType": "uint256",
                    "name": "deadline",
                    "type": "uint256"
                }
            ],
            "name": "createProject",
            "outputs": [],
            "stateMutability": "nonpayable",
            "type": "function"
        },
        {
            "inputs": [
                {
                    "internalType": "uint256",
                    "name": "projectId",
                    "type": "uint256"
                }
            ],
            "name": "fundProject",
            "outputs": [],
            "stateMutability": "payable",
            "type": "function",
            "payable": true
        }
    ],
    "bytecode": "0x608060405234801561001057600080fd5b506106a2806100206000396000f3fe6080604052600436106100345760003560e01c806302da667b14610039578063107046bd146100625780636c563abe146100a3575b600080fd5b34801561004557600080fd5b50610060600480360381019061005b919061033f565b6100bf565b005b34801561006e57600080fd5b506100896004803603810190610084919061037f565b6101a4565b60405161009a9594939291906103fc565b60405180910390f35b6100bd60048036038101906100b8919061037f565b61020a565b005b60006040518060a001604052803373ffffffffffffffffffffffffffffffffffffffff1681526020018481526020018381526020016000815260200160008152509050600081908060018154018082558091505060019003906000526020600020906005020160009091909190915060008201518160000160006101000a81548173ffffffffffffffffffffffffffffffffffffffff021916908373ffffffffffffffffffffffffffffffffffffffff160217905550602082015181600101556040820151816002015560608201518160030155608082015181600401555050505050565b600081815481106101b457600080fd5b90600052602060002090600502016000915090508060000160009054906101000a900473ffffffffffffffffffffffffffffffffffffffff16908060010154908060020154908060030154908060040154905085565b600080828154811061021f5761021e61044f565b5b9060005260206000209060050201905080600201544210610275576040517f08c379a000000000000000000000000000000000000000000000000000000000815260040161026c906104db565b60405180910390fd5b80600401548160010154610289919061052a565b3411156102cb576040517f08c379a00000000000000000000000000000000000000000000000000000000081526004016102c2906105d0565b60405180910390fd5b348160040160008282546102df91906105f0565b925050819055508060030160008154809291906102fb90610624565b91905055505050565b600080fd5b6000819050919050565b61031c81610309565b811461032757600080fd5b50565b60008135905061033981610313565b92915050565b6000806040838503121561035657610355610304565b5b60006103648582860161032a565b92505060206103758582860161032a565b9150509250929050565b60006020828403121561039557610394610304565b5b60006103a38482850161032a565b91505092915050565b600073ffffffffffffffffffffffffffffffffffffffff82169050919050565b60006103d7826103ac565b9050919050565b6103e7816103cc565b82525050565b6103f681610309565b82525050565b600060a08201905061041160008301886103de565b61041e60208301876103ed565b61042b60408301866103ed565b61043860608301856103ed565b61044560808301846103ed565b9695505050505050565b7f4e487b7100000000000000000000000000000000000000000000000000000000600052603260045260246000fd5b600082825260208201905092915050565b7f50726f6a6563742066756e64696e6720706572696f642068617320656e646564600082015250565b60006104c560208361047e565b91506104d08261048f565b602082019050919050565b600060208201905081810360008301526104f4816104b8565b9050919050565b7f4e487b7100000000000000000000000000000000000000000000000000000000600052601160045260246000fd5b600061053582610309565b915061054083610309565b9250828203905081811115610558576105576104fb565b5b92915050565b7f50726f6a656374206861732072656163686564206974732066756e64696e672060008201527f676f616c00000000000000000000000000000000000000000000000000000000602082015250565b60006105ba60248361047e565b91506105c58261055e565b604082019050919050565b600060208201905081810360008301526105e9816105ad565b9050919050565b60006105fb82610309565b915061060683610309565b925082820190508082111561061e5761061d6104fb565b5b92915050565b600061062f82610309565b91507fffffffffffffffffffffffffffffffffffffffffffffffffffffffffffffffff8203610661576106606104fb565b5b60018201905091905056fea2646970667358221220a21933553e1661f2ecc69ff18340f2ab60b92d851ebd65f8005ec8ad94ee8f0a64736f6c63430008130033",
    "immutableReferences": {},
    "source": "//SPDX-License-Identifier: MIT\npragma solidity ^0.8.0;\n\ncontract Crowdfunding {\n   struct Project {\n       address payable creator;\n       uint targetAmount;\n       uint deadline;\n       uint numFunders;\n       uint amountRaised;\n   }\n\n   struct Funder {\n       address payable addr;\n       uint amount;\n   }\n\n   Project[] public projects;\n\n   function createProject(uint targetAmount, uint deadline) public {\n       Project memory newProject = Project(payable(msg.sender), targetAmount, deadline, 0, 0);\n       projects.push(newProject);\n   }\n\n   function fundProject(uint projectId) public payable {\n       Project storage project = projects[projectId];\n       require(block.timestamp < project.deadline, \"Project funding period has ended\");\n       require(msg.value <= project.targetAmount - project.amountRaised, \"Project has reached its funding goal\");\n\n       project.amountRaised += msg.value;\n       project.numFunders++;\n   }\n}",
    "sourcePath": "/Users/macintoshhd/celo-crowdfunding/contracts/Crowdfunding.sol",
    "compiler": {
        "name": "solc",
        "version": "0.8.19+commit.7dd6d404.Emscripten.clang"
    },
    "schemaVersion": "3.4.13",
    "updatedAt": "2023-07-04T14:01:29.501Z",
    "networkType": "ethereum",
    "devdoc": {
        "kind": "dev",
        "methods": {},
        "version": 1
    },
    "userdoc": {
        "kind": "user",
        "methods": {},
        "version": 1
    }
}